{
  "contractName": "Voting",
  "abi": [
    {
      "inputs": [],
      "stateMutability": "nonpayable",
      "type": "constructor"
    },
    {
      "inputs": [
        {
          "internalType": "uint256",
          "name": "",
          "type": "uint256"
        }
      ],
      "name": "candidates",
      "outputs": [
        {
          "internalType": "string",
          "name": "name",
          "type": "string"
        },
        {
          "internalType": "uint256",
          "name": "age",
          "type": "uint256"
        }
      ],
      "stateMutability": "view",
      "type": "function",
      "constant": true
    },
    {
      "inputs": [],
      "name": "numberOfCandidates",
      "outputs": [
        {
          "internalType": "uint256",
          "name": "",
          "type": "uint256"
        }
      ],
      "stateMutability": "view",
      "type": "function",
      "constant": true
    },
    {
      "inputs": [
        {
          "internalType": "uint256",
          "name": "",
          "type": "uint256"
        }
      ],
      "name": "votes",
      "outputs": [
        {
          "internalType": "uint256",
          "name": "",
          "type": "uint256"
        }
      ],
      "stateMutability": "view",
      "type": "function",
      "constant": true
    },
    {
      "inputs": [
        {
          "internalType": "string",
          "name": "name",
          "type": "string"
        },
        {
          "internalType": "uint256",
          "name": "age",
          "type": "uint256"
        }
      ],
      "name": "addCandidate",
      "outputs": [],
      "stateMutability": "nonpayable",
      "type": "function"
    },
    {
      "inputs": [
        {
          "internalType": "uint256",
          "name": "_number",
          "type": "uint256"
        }
      ],
      "name": "giveVote",
      "outputs": [],
      "stateMutability": "nonpayable",
      "type": "function"
    }
  ],
  "bytecode": "0x608060405234801561001057600080fd5b50336000806101000a81548173ffffffffffffffffffffffffffffffffffffffff021916908373ffffffffffffffffffffffffffffffffffffffff160217905550610858806100606000396000f3fe608060405234801561001057600080fd5b50600436106100575760003560e01c80633477ee2e1461005c5780635df813301461008d5780637f178f2e146100bd5780639c84bb27146100d9578063e23cec7b146100f7575b600080fd5b61007660048036038101906100719190610498565b610113565b60405161008492919061056d565b60405180910390f35b6100a760048036038101906100a29190610498565b6101cf565b6040516100b4919061059d565b60405180910390f35b6100d760048036038101906100d29190610498565b6101e7565b005b6100e16102c8565b6040516100ee919061059d565b60405180910390f35b610111600480360381019061010c91906106ed565b6102ce565b005b6003818154811061012357600080fd5b906000526020600020906002020160009150905080600001805461014690610778565b80601f016020809104026020016040519081016040528092919081815260200182805461017290610778565b80156101bf5780601f10610194576101008083540402835291602001916101bf565b820191906000526020600020905b8154815290600101906020018083116101a257829003601f168201915b5050505050908060010154905082565b60046020528060005260406000206000915090505481565b60001515600260003373ffffffffffffffffffffffffffffffffffffffff1673ffffffffffffffffffffffffffffffffffffffff16815260200190815260200160002060009054906101000a900460ff1615151461024457600080fd5b600460008281526020019081526020016000206000815480929190610268906107d9565b91905055506001600260003373ffffffffffffffffffffffffffffffffffffffff1673ffffffffffffffffffffffffffffffffffffffff16815260200190815260200160002060006101000a81548160ff02191690831515021790555050565b60015481565b60008054906101000a900473ffffffffffffffffffffffffffffffffffffffff1673ffffffffffffffffffffffffffffffffffffffff163373ffffffffffffffffffffffffffffffffffffffff161461032657600080fd5b6003604051806040016040528084815260200183815250908060018154018082558091505060019003906000526020600020906002020160009091909190915060008201518160000190805190602001906103829291906103ab565b50602082015181600101555050600160008154809291906103a2906107d9565b91905055505050565b8280546103b790610778565b90600052602060002090601f0160209004810192826103d95760008555610420565b82601f106103f257805160ff1916838001178555610420565b82800160010185558215610420579182015b8281111561041f578251825591602001919060010190610404565b5b50905061042d9190610431565b5090565b5b8082111561044a576000816000905550600101610432565b5090565b6000604051905090565b600080fd5b600080fd5b6000819050919050565b61047581610462565b811461048057600080fd5b50565b6000813590506104928161046c565b92915050565b6000602082840312156104ae576104ad610458565b5b60006104bc84828501610483565b91505092915050565b600081519050919050565b600082825260208201905092915050565b60005b838110156104ff5780820151818401526020810190506104e4565b8381111561050e576000848401525b50505050565b6000601f19601f8301169050919050565b6000610530826104c5565b61053a81856104d0565b935061054a8185602086016104e1565b61055381610514565b840191505092915050565b61056781610462565b82525050565b600060408201905081810360008301526105878185610525565b9050610596602083018461055e565b9392505050565b60006020820190506105b2600083018461055e565b92915050565b600080fd5b600080fd5b7f4e487b7100000000000000000000000000000000000000000000000000000000600052604160045260246000fd5b6105fa82610514565b810181811067ffffffffffffffff82111715610619576106186105c2565b5b80604052505050565b600061062c61044e565b905061063882826105f1565b919050565b600067ffffffffffffffff821115610658576106576105c2565b5b61066182610514565b9050602081019050919050565b82818337600083830152505050565b600061069061068b8461063d565b610622565b9050828152602081018484840111156106ac576106ab6105bd565b5b6106b784828561066e565b509392505050565b600082601f8301126106d4576106d36105b8565b5b81356106e484826020860161067d565b91505092915050565b6000806040838503121561070457610703610458565b5b600083013567ffffffffffffffff8111156107225761072161045d565b5b61072e858286016106bf565b925050602061073f85828601610483565b9150509250929050565b7f4e487b7100000000000000000000000000000000000000000000000000000000600052602260045260246000fd5b6000600282049050600182168061079057607f821691505b602082108114156107a4576107a3610749565b5b50919050565b7f4e487b7100000000000000000000000000000000000000000000000000000000600052601160045260246000fd5b60006107e482610462565b91507fffffffffffffffffffffffffffffffffffffffffffffffffffffffffffffffff821415610817576108166107aa565b5b60018201905091905056fea2646970667358221220ce0e02ed74b1f6ca8b29c009d7181a69b4f00a8f032e7ca5cd85cf574ece873564736f6c634300080b0033",
  "immutableReferences": {},
  "source": "pragma solidity >=0.4.22 <0.9.0;\r\n\r\ncontract Voting{\r\n   \r\n\r\n        address owner;\r\n        uint public numberOfCandidates;\r\n        mapping(address => bool) hasVote;\r\n        constructor() {\r\n            owner = msg.sender;\r\n        }       \r\n\r\n        struct candidate{\r\n            string name;\r\n            uint age;\r\n\r\n        }\r\n\r\n        candidate[] public candidates;\r\n        mapping(uint=>uint) public votes;\r\n\r\n\r\n        modifier owneronly{\r\n            require(msg.sender == owner);\r\n            _;\r\n        }\r\n\r\n        function addCandidate(string memory name, uint age) public owneronly {\r\n\r\n           \r\n            candidates.push(candidate(name,age));\r\n            numberOfCandidates++;\r\n\r\n\r\n        }\r\n\r\n        function giveVote(uint _number) public {\r\n            require(hasVote[msg.sender]==false);\r\n            votes[_number]++;\r\n            hasVote[msg.sender]=true;\r\n        }\r\n\r\n\r\n\r\n\r\n\r\n\r\n}",
  "sourcePath": "C:\\Users\\kusha\\Desktop\\dapp practice\\voting\\contracts\\Voting.sol",
  "compiler": {
    "name": "solc",
    "version": "0.8.11+commit.d7f03943.Emscripten.clang"
  },
  "schemaVersion": "3.4.4",
  "updatedAt": "2022-05-31T03:45:14.592Z",
  "networkType": "ethereum",
  "devdoc": {
    "kind": "dev",
    "methods": {},
    "version": 1
  },
  "userdoc": {
    "kind": "user",
    "methods": {},
    "version": 1
  }
}